{
  "contractName": "StoCar",
  "abi": [
    {
      "inputs": [
        {
          "internalType": "uint64",
          "name": "starting_tax",
          "type": "uint64"
        }
      ],
      "stateMutability": "nonpayable",
      "type": "constructor"
    },
    {
      "anonymous": false,
      "inputs": [],
      "name": "AuctionClosed",
      "type": "event"
    },
    {
      "anonymous": false,
      "inputs": [
        {
          "indexed": false,
          "internalType": "address",
          "name": "owner",
          "type": "address"
        },
        {
          "indexed": false,
          "internalType": "bytes12",
          "name": "chassis_id",
          "type": "bytes12"
        }
      ],
      "name": "AuctionOpened",
      "type": "event"
    },
    {
      "anonymous": false,
      "inputs": [
        {
          "indexed": false,
          "internalType": "uint256",
          "name": "value",
          "type": "uint256"
        }
      ],
      "name": "Debug",
      "type": "event"
    },
    {
      "anonymous": false,
      "inputs": [
        {
          "indexed": false,
          "internalType": "address",
          "name": "owner",
          "type": "address"
        },
        {
          "indexed": false,
          "internalType": "address",
          "name": "offerer",
          "type": "address"
        },
        {
          "indexed": false,
          "internalType": "uint256",
          "name": "past_offer",
          "type": "uint256"
        },
        {
          "indexed": false,
          "internalType": "uint256",
          "name": "new_offer",
          "type": "uint256"
        }
      ],
      "name": "OfferAccepted",
      "type": "event"
    },
    {
      "anonymous": false,
      "inputs": [
        {
          "indexed": false,
          "internalType": "uint64",
          "name": "new_tax",
          "type": "uint64"
        }
      ],
      "name": "TaxChanged",
      "type": "event"
    },
    {
      "anonymous": false,
      "inputs": [
        {
          "indexed": false,
          "internalType": "address",
          "name": "owner",
          "type": "address"
        },
        {
          "indexed": false,
          "internalType": "uint256",
          "name": "token_num",
          "type": "uint256"
        },
        {
          "indexed": false,
          "internalType": "bytes12",
          "name": "chassis_id",
          "type": "bytes12"
        },
        {
          "indexed": false,
          "internalType": "bytes12",
          "name": "zero",
          "type": "bytes12"
        }
      ],
      "name": "TokenBalanceAccessed",
      "type": "event"
    },
    {
      "anonymous": false,
      "inputs": [
        {
          "indexed": false,
          "internalType": "uint256",
          "name": "taxes",
          "type": "uint256"
        }
      ],
      "name": "Withdrawn",
      "type": "event"
    },
    {
      "inputs": [
        {
          "internalType": "address",
          "name": "",
          "type": "address"
        },
        {
          "internalType": "uint256",
          "name": "",
          "type": "uint256"
        }
      ],
      "name": "token_balance",
      "outputs": [
        {
          "internalType": "bytes12",
          "name": "chassis_id",
          "type": "bytes12"
        }
      ],
      "stateMutability": "view",
      "type": "function",
      "constant": true
    },
    {
      "inputs": [
        {
          "internalType": "uint256",
          "name": "starting_price",
          "type": "uint256"
        },
        {
          "internalType": "uint16",
          "name": "max_duration",
          "type": "uint16"
        },
        {
          "internalType": "bytes12",
          "name": "chassis_id",
          "type": "bytes12"
        }
      ],
      "name": "openAuction",
      "outputs": [],
      "stateMutability": "nonpayable",
      "type": "function"
    },
    {
      "inputs": [],
      "name": "getOpenAuctions",
      "outputs": [
        {
          "components": [
            {
              "internalType": "address",
              "name": "owner",
              "type": "address"
            },
            {
              "internalType": "address",
              "name": "current_winner",
              "type": "address"
            },
            {
              "internalType": "uint256",
              "name": "offer",
              "type": "uint256"
            },
            {
              "components": [
                {
                  "internalType": "bytes12",
                  "name": "chassis_id",
                  "type": "bytes12"
                }
              ],
              "internalType": "struct StoCar.CarNFT",
              "name": "car",
              "type": "tuple"
            },
            {
              "internalType": "uint256",
              "name": "starting_price",
              "type": "uint256"
            },
            {
              "internalType": "uint256",
              "name": "start_timestamp",
              "type": "uint256"
            },
            {
              "internalType": "uint256",
              "name": "duration",
              "type": "uint256"
            }
          ],
          "internalType": "struct StoCar.Auction[]",
          "name": "",
          "type": "tuple[]"
        }
      ],
      "stateMutability": "view",
      "type": "function",
      "constant": true
    },
    {
      "inputs": [
        {
          "internalType": "address",
          "name": "owner_id",
          "type": "address"
        }
      ],
      "name": "getOpenAuction",
      "outputs": [
        {
          "components": [
            {
              "internalType": "address",
              "name": "owner",
              "type": "address"
            },
            {
              "internalType": "address",
              "name": "current_winner",
              "type": "address"
            },
            {
              "internalType": "uint256",
              "name": "offer",
              "type": "uint256"
            },
            {
              "components": [
                {
                  "internalType": "bytes12",
                  "name": "chassis_id",
                  "type": "bytes12"
                }
              ],
              "internalType": "struct StoCar.CarNFT",
              "name": "car",
              "type": "tuple"
            },
            {
              "internalType": "uint256",
              "name": "starting_price",
              "type": "uint256"
            },
            {
              "internalType": "uint256",
              "name": "start_timestamp",
              "type": "uint256"
            },
            {
              "internalType": "uint256",
              "name": "duration",
              "type": "uint256"
            }
          ],
          "internalType": "struct StoCar.Auction",
          "name": "",
          "type": "tuple"
        }
      ],
      "stateMutability": "view",
      "type": "function",
      "constant": true
    },
    {
      "inputs": [
        {
          "internalType": "address",
          "name": "owner_addr",
          "type": "address"
        },
        {
          "internalType": "uint256",
          "name": "new_offer",
          "type": "uint256"
        }
      ],
      "name": "participateAuction",
      "outputs": [],
      "stateMutability": "payable",
      "type": "function",
      "payable": true
    },
    {
      "inputs": [
        {
          "internalType": "address",
          "name": "owner_addr",
          "type": "address"
        }
      ],
      "name": "closeAuction",
      "outputs": [],
      "stateMutability": "nonpayable",
      "type": "function"
    },
    {
      "inputs": [
        {
          "internalType": "bytes12",
          "name": "chassis_id",
          "type": "bytes12"
        }
      ],
      "name": "getCarHistory",
      "outputs": [
        {
          "components": [
            {
              "internalType": "address",
              "name": "owner",
              "type": "address"
            },
            {
              "internalType": "address",
              "name": "current_winner",
              "type": "address"
            },
            {
              "internalType": "uint256",
              "name": "offer",
              "type": "uint256"
            },
            {
              "components": [
                {
                  "internalType": "bytes12",
                  "name": "chassis_id",
                  "type": "bytes12"
                }
              ],
              "internalType": "struct StoCar.CarNFT",
              "name": "car",
              "type": "tuple"
            },
            {
              "internalType": "uint256",
              "name": "starting_price",
              "type": "uint256"
            },
            {
              "internalType": "uint256",
              "name": "start_timestamp",
              "type": "uint256"
            },
            {
              "internalType": "uint256",
              "name": "duration",
              "type": "uint256"
            }
          ],
          "internalType": "struct StoCar.Auction[]",
          "name": "",
          "type": "tuple[]"
        }
      ],
      "stateMutability": "view",
      "type": "function",
      "constant": true
    },
    {
      "inputs": [],
      "name": "getTax",
      "outputs": [
        {
          "internalType": "uint64",
          "name": "ret",
          "type": "uint64"
        }
      ],
      "stateMutability": "view",
      "type": "function",
      "constant": true
    },
    {
      "inputs": [],
      "name": "getCreator",
      "outputs": [
        {
          "internalType": "address",
          "name": "",
          "type": "address"
        }
      ],
      "stateMutability": "view",
      "type": "function",
      "constant": true
    },
    {
      "inputs": [
        {
          "internalType": "uint64",
          "name": "new_tax",
          "type": "uint64"
        }
      ],
      "name": "changeFixedTax",
      "outputs": [],
      "stateMutability": "nonpayable",
      "type": "function"
    },
    {
      "inputs": [],
      "name": "withdraw",
      "outputs": [
        {
          "internalType": "uint256",
          "name": "",
          "type": "uint256"
        }
      ],
      "stateMutability": "payable",
      "type": "function",
      "payable": true
    },
    {
      "inputs": [],
      "name": "terminate",
      "outputs": [],
      "stateMutability": "nonpayable",
      "type": "function"
    }
  ],
  "bytecode": "0x60806040523480156200001157600080fd5b5060405162003fce38038062003fce8339818101604052810190620000379190620000f9565b336000806101000a81548173ffffffffffffffffffffffffffffffffffffffff021916908373ffffffffffffffffffffffffffffffffffffffff16021790555080600060146101000a81548167ffffffffffffffff021916908367ffffffffffffffff1602179055506000600181905550506200012b565b600080fd5b600067ffffffffffffffff82169050919050565b620000d381620000b4565b8114620000df57600080fd5b50565b600081519050620000f381620000c8565b92915050565b600060208284031215620001125762000111620000af565b5b60006200012284828501620000e2565b91505092915050565b613e93806200013b6000396000f3fe6080604052600436106100a75760003560e01c80639476744c116100645780639476744c146101895780639687660f146101c6578063b05940f2146101ef578063bae366d41461021a578063bc918bd214610236578063e642ce5d14610273576100a7565b80630c08bf88146100ac5780630ee2cb10146100c35780633ccfd60b146100ee5780633fcf2e101461010c5780634b34e5661461013557806354b762a61461015e575b600080fd5b3480156100b857600080fd5b506100c16102b0565b005b3480156100cf57600080fd5b506100d8610377565b6040516100e591906130c2565b60405180910390f35b6100f66103a0565b60405161010391906130f6565b60405180910390f35b34801561011857600080fd5b50610133600480360381019061012e9190613156565b6104c9565b005b34801561014157600080fd5b5061015c600480360381019061015791906131af565b6105ba565b005b34801561016a57600080fd5b50610173611271565b60405161018091906131eb565b60405180910390f35b34801561019557600080fd5b506101b060048036038101906101ab919061325e565b61128e565b6040516101bd9190613411565b60405180910390f35b3480156101d257600080fd5b506101ed60048036038101906101e89190613499565b6119e3565b005b3480156101fb57600080fd5b5061020461243c565b6040516102119190613411565b60405180910390f35b610234600480360381019061022f91906134ec565b612856565b005b34801561024257600080fd5b5061025d600480360381019061025891906134ec565b612da5565b60405161026a919061353b565b60405180910390f35b34801561027f57600080fd5b5061029a600480360381019061029591906131af565b612de9565b6040516102a791906135e4565b60405180910390f35b60008054906101000a900473ffffffffffffffffffffffffffffffffffffffff1673ffffffffffffffffffffffffffffffffffffffff163373ffffffffffffffffffffffffffffffffffffffff161461033e576040517f08c379a000000000000000000000000000000000000000000000000000000000815260040161033590613682565b60405180910390fd5b60008054906101000a900473ffffffffffffffffffffffffffffffffffffffff1673ffffffffffffffffffffffffffffffffffffffff16ff5b60008060009054906101000a900473ffffffffffffffffffffffffffffffffffffffff16905090565b60008060009054906101000a900473ffffffffffffffffffffffffffffffffffffffff1673ffffffffffffffffffffffffffffffffffffffff163373ffffffffffffffffffffffffffffffffffffffff1614610431576040517f08c379a000000000000000000000000000000000000000000000000000000000815260040161042890613714565b60405180910390fd5b3373ffffffffffffffffffffffffffffffffffffffff166108fc6001549081150290604051600060405180830381858888f19350505050158015610479573d6000803e3d6000fd5b507f430648de173157e069201c943adb2d4e340e7cf5b27b1b09c9cb852f03d63b566001546040516104ab91906130f6565b60405180910390a16000600154905060006001819055508091505090565b60008054906101000a900473ffffffffffffffffffffffffffffffffffffffff1673ffffffffffffffffffffffffffffffffffffffff163373ffffffffffffffffffffffffffffffffffffffff1614610557576040517f08c379a000000000000000000000000000000000000000000000000000000000815260040161054e90613714565b60405180910390fd5b80600060146101000a81548167ffffffffffffffff021916908367ffffffffffffffff1602179055507fd7606dd40cd89964cd4751bdc84563298a455d40be9ef3543e8907eb2c0c342b816040516105af91906131eb565b60405180910390a150565b600073ffffffffffffffffffffffffffffffffffffffff16600360008373ffffffffffffffffffffffffffffffffffffffff1673ffffffffffffffffffffffffffffffffffffffff16815260200190815260200160002060000160009054906101000a900473ffffffffffffffffffffffffffffffffffffffff1673ffffffffffffffffffffffffffffffffffffffff160361068b576040517f08c379a000000000000000000000000000000000000000000000000000000000815260040161068290613780565b60405180910390fd5b6000600360008373ffffffffffffffffffffffffffffffffffffffff1673ffffffffffffffffffffffffffffffffffffffff1681526020019081526020016000206002015414610adf57600060149054906101000a900467ffffffffffffffff1667ffffffffffffffff16600360008373ffffffffffffffffffffffffffffffffffffffff1673ffffffffffffffffffffffffffffffffffffffff168152602001908152602001600020600201600082825461074791906137cf565b92505081905550600060149054906101000a900467ffffffffffffffff1667ffffffffffffffff1660015461077c9190613803565b60018190555060076000600360008473ffffffffffffffffffffffffffffffffffffffff1673ffffffffffffffffffffffffffffffffffffffff16815260200190815260200160002060010160009054906101000a900473ffffffffffffffffffffffffffffffffffffffff1673ffffffffffffffffffffffffffffffffffffffff1673ffffffffffffffffffffffffffffffffffffffff168152602001908152602001600020600360008373ffffffffffffffffffffffffffffffffffffffff1673ffffffffffffffffffffffffffffffffffffffff168152602001908152602001600020600301908060018154018082558091505060019003906000526020600020016000909190919091506000820160009054906101000a900460a01b8160000160006101000a8154816bffffffffffffffffffffffff021916908360a01c021790555050507f9e6a41e8ea2b2b334b54dc9845f2a6380f1981442147443b7044641e680ad050600360008373ffffffffffffffffffffffffffffffffffffffff1673ffffffffffffffffffffffffffffffffffffffff16815260200190815260200160002060010160009054906101000a900473ffffffffffffffffffffffffffffffffffffffff1660076000600360008673ffffffffffffffffffffffffffffffffffffffff1673ffffffffffffffffffffffffffffffffffffffff16815260200190815260200160002060010160009054906101000a900473ffffffffffffffffffffffffffffffffffffffff1673ffffffffffffffffffffffffffffffffffffffff1673ffffffffffffffffffffffffffffffffffffffff1681526020019081526020016000208054905060076000600360008773ffffffffffffffffffffffffffffffffffffffff1673ffffffffffffffffffffffffffffffffffffffff16815260200190815260200160002060010160009054906101000a900473ffffffffffffffffffffffffffffffffffffffff1673ffffffffffffffffffffffffffffffffffffffff1673ffffffffffffffffffffffffffffffffffffffff168152602001908152602001600020600081548110610aa257610aa1613837565b5b9060005260206000200160000160009054906101000a900460a01b600060a01b604051610ad29493929190613866565b60405180910390a1610cb0565b600760008273ffffffffffffffffffffffffffffffffffffffff1673ffffffffffffffffffffffffffffffffffffffff168152602001908152602001600020600360008373ffffffffffffffffffffffffffffffffffffffff1673ffffffffffffffffffffffffffffffffffffffff168152602001908152602001600020600301908060018154018082558091505060019003906000526020600020016000909190919091506000820160009054906101000a900460a01b8160000160006101000a8154816bffffffffffffffffffffffff021916908360a01c021790555050507f9e6a41e8ea2b2b334b54dc9845f2a6380f1981442147443b7044641e680ad05081600760008473ffffffffffffffffffffffffffffffffffffffff1673ffffffffffffffffffffffffffffffffffffffff16815260200190815260200160002080549050600760008573ffffffffffffffffffffffffffffffffffffffff1673ffffffffffffffffffffffffffffffffffffffff168152602001908152602001600020600081548110610c7757610c76613837565b5b9060005260206000200160000160009054906101000a900460a01b600060a01b604051610ca79493929190613866565b60405180910390a15b600360008273ffffffffffffffffffffffffffffffffffffffff1673ffffffffffffffffffffffffffffffffffffffff16815260200190815260200160002060000160009054906101000a900473ffffffffffffffffffffffffffffffffffffffff1673ffffffffffffffffffffffffffffffffffffffff166108fc600360008473ffffffffffffffffffffffffffffffffffffffff1673ffffffffffffffffffffffffffffffffffffffff168152602001908152602001600020600201549081150290604051600060405180830381858888f19350505050158015610d9a573d6000803e3d6000fd5b50600360008273ffffffffffffffffffffffffffffffffffffffff1673ffffffffffffffffffffffffffffffffffffffff168152602001908152602001600020600460008373ffffffffffffffffffffffffffffffffffffffff1673ffffffffffffffffffffffffffffffffffffffff1681526020019081526020016000206000820160009054906101000a900473ffffffffffffffffffffffffffffffffffffffff168160000160006101000a81548173ffffffffffffffffffffffffffffffffffffffff021916908373ffffffffffffffffffffffffffffffffffffffff1602179055506001820160009054906101000a900473ffffffffffffffffffffffffffffffffffffffff168160010160006101000a81548173ffffffffffffffffffffffffffffffffffffffff021916908373ffffffffffffffffffffffffffffffffffffffff1602179055506002820154816002015560038201816003016000820160009054906101000a900460a01b8160000160006101000a8154816bffffffffffffffffffffffff021916908360a01c0217905550505060048201548160040155600582015481600501556006820154816006015590505060056000600360008473ffffffffffffffffffffffffffffffffffffffff1673ffffffffffffffffffffffffffffffffffffffff16815260200190815260200160002060030160000160009054906101000a900460a01b73ffffffffffffffffffffffffffffffffffffffff191673ffffffffffffffffffffffffffffffffffffffff1916815260200190815260200160002060066000600360008573ffffffffffffffffffffffffffffffffffffffff1673ffffffffffffffffffffffffffffffffffffffff16815260200190815260200160002060030160000160009054906101000a900460a01b73ffffffffffffffffffffffffffffffffffffffff191673ffffffffffffffffffffffffffffffffffffffff191681526020019081526020016000206000820160009054906101000a900460a01b8160000160006101000a8154816bffffffffffffffffffffffff021916908360a01c021790555090505060056000600360008473ffffffffffffffffffffffffffffffffffffffff1673ffffffffffffffffffffffffffffffffffffffff16815260200190815260200160002060030160000160009054906101000a900460a01b73ffffffffffffffffffffffffffffffffffffffff191673ffffffffffffffffffffffffffffffffffffffff19168152602001908152602001600020600080820160006101000a8154906bffffffffffffffffffffffff02191690555050600360008273ffffffffffffffffffffffffffffffffffffffff1673ffffffffffffffffffffffffffffffffffffffff168152602001908152602001600020600080820160006101000a81549073ffffffffffffffffffffffffffffffffffffffff02191690556001820160006101000a81549073ffffffffffffffffffffffffffffffffffffffff0219169055600282016000905560038201600080820160006101000a8154906bffffffffffffffffffffffff0219169055505060048201600090556005820160009055600682016000905550507f36b6b46dc27de0e2e7407f09bfad8e27b837c2ce3153a08fdebf9279d2cd22b760405160405180910390a150565b60008060149054906101000a900467ffffffffffffffff16905090565b6060600060028054905067ffffffffffffffff8111156112b1576112b06138ab565b5b6040519080825280602002602001820160405280156112df5781602001602082028036833780820191505090505b509050600060028054905067ffffffffffffffff811115611303576113026138ab565b5b6040519080825280602002602001820160405280156113315781602001602082028036833780820191505090505b5090506000805b600280549050811015611549578573ffffffffffffffffffffffffffffffffffffffff1916600360006002848154811061137557611374613837565b5b9060005260206000200160009054906101000a900473ffffffffffffffffffffffffffffffffffffffff1673ffffffffffffffffffffffffffffffffffffffff1673ffffffffffffffffffffffffffffffffffffffff16815260200190815260200160002060030160000160009054906101000a900460a01b73ffffffffffffffffffffffffffffffffffffffff19160361143f57600184828151811061141f5761141e613837565b5b6020026020010181815250506001826114389190613803565b9150611536565b8573ffffffffffffffffffffffffffffffffffffffff1916600460006002848154811061146f5761146e613837565b5b9060005260206000200160009054906101000a900473ffffffffffffffffffffffffffffffffffffffff1673ffffffffffffffffffffffffffffffffffffffff1673ffffffffffffffffffffffffffffffffffffffff16815260200190815260200160002060030160000160009054906101000a900460a01b73ffffffffffffffffffffffffffffffffffffffff19160361153557600183828151811061151957611518613837565b5b6020026020010181815250506001826115329190613803565b91505b5b8080611541906138da565b915050611338565b5060008167ffffffffffffffff811115611566576115656138ab565b5b60405190808252806020026020018201604052801561159f57816020015b61158c612fe8565b8152602001906001900390816115845790505b5090506000805b6002805490508110156119d55760018682815181106115c8576115c7613837565b5b6020026020010151036117bc5760036000600283815481106115ed576115ec613837565b5b9060005260206000200160009054906101000a900473ffffffffffffffffffffffffffffffffffffffff1673ffffffffffffffffffffffffffffffffffffffff1673ffffffffffffffffffffffffffffffffffffffff1681526020019081526020016000206040518060e00160405290816000820160009054906101000a900473ffffffffffffffffffffffffffffffffffffffff1673ffffffffffffffffffffffffffffffffffffffff1673ffffffffffffffffffffffffffffffffffffffff1681526020016001820160009054906101000a900473ffffffffffffffffffffffffffffffffffffffff1673ffffffffffffffffffffffffffffffffffffffff1673ffffffffffffffffffffffffffffffffffffffff16815260200160028201548152602001600382016040518060200160405290816000820160009054906101000a900460a01b73ffffffffffffffffffffffffffffffffffffffff191673ffffffffffffffffffffffffffffffffffffffff1916815250508152602001600482015481526020016005820154815260200160068201548152505083838151811061179d5761179c613837565b5b60200260200101819052506001826117b59190613803565b91506119c2565b60018582815181106117d1576117d0613837565b5b6020026020010151036119c15760046000600283815481106117f6576117f5613837565b5b9060005260206000200160009054906101000a900473ffffffffffffffffffffffffffffffffffffffff1673ffffffffffffffffffffffffffffffffffffffff1673ffffffffffffffffffffffffffffffffffffffff1681526020019081526020016000206040518060e00160405290816000820160009054906101000a900473ffffffffffffffffffffffffffffffffffffffff1673ffffffffffffffffffffffffffffffffffffffff1673ffffffffffffffffffffffffffffffffffffffff1681526020016001820160009054906101000a900473ffffffffffffffffffffffffffffffffffffffff1673ffffffffffffffffffffffffffffffffffffffff1673ffffffffffffffffffffffffffffffffffffffff16815260200160028201548152602001600382016040518060200160405290816000820160009054906101000a900460a01b73ffffffffffffffffffffffffffffffffffffffff191673ffffffffffffffffffffffffffffffffffffffff191681525050815260200160048201548152602001600582015481526020016006820154815250508383815181106119a6576119a5613837565b5b60200260200101819052506001826119be9190613803565b91505b5b80806119cd906138da565b9150506115a6565b508195505050505050919050565b60008261ffff1611611a2a576040517f08c379a0000000000000000000000000000000000000000000000000000000008152600401611a2190613994565b60405180910390fd5b600073ffffffffffffffffffffffffffffffffffffffff16600360003373ffffffffffffffffffffffffffffffffffffffff1673ffffffffffffffffffffffffffffffffffffffff16815260200190815260200160002060000160009054906101000a900473ffffffffffffffffffffffffffffffffffffffff1673ffffffffffffffffffffffffffffffffffffffff1614611afb576040517f08c379a0000000000000000000000000000000000000000000000000000000008152600401611af290613a00565b60405180910390fd5b600060149054906101000a900467ffffffffffffffff1667ffffffffffffffff16831015611b5e576040517f08c379a0000000000000000000000000000000000000000000000000000000008152600401611b5590613ab8565b60405180910390fd5b600060a01b73ffffffffffffffffffffffffffffffffffffffff1916600560008373ffffffffffffffffffffffffffffffffffffffff191673ffffffffffffffffffffffffffffffffffffffff1916815260200190815260200160002060000160009054906101000a900460a01b73ffffffffffffffffffffffffffffffffffffffff191614611c23576040517f08c379a0000000000000000000000000000000000000000000000000000000008152600401611c1a90613b4a565b60405180910390fd5b611c2b613057565b600060a01b73ffffffffffffffffffffffffffffffffffffffff1916600660008473ffffffffffffffffffffffffffffffffffffffff191673ffffffffffffffffffffffffffffffffffffffff1916815260200190815260200160002060000160009054906101000a900460a01b73ffffffffffffffffffffffffffffffffffffffff191603611ce25760405180602001604052808373ffffffffffffffffffffffffffffffffffffffff191681525090506120d4565b600080600660008573ffffffffffffffffffffffffffffffffffffffff191673ffffffffffffffffffffffffffffffffffffffff191681526020019081526020016000206040518060200160405290816000820160009054906101000a900460a01b73ffffffffffffffffffffffffffffffffffffffff191673ffffffffffffffffffffffffffffffffffffffff191681525050925060005b600760003373ffffffffffffffffffffffffffffffffffffffff1673ffffffffffffffffffffffffffffffffffffffff16815260200190815260200160002080549050811015611e8857836000015173ffffffffffffffffffffffffffffffffffffffff1916600760003373ffffffffffffffffffffffffffffffffffffffff1673ffffffffffffffffffffffffffffffffffffffff1681526020019081526020016000208281548110611e3257611e31613837565b5b9060005260206000200160000160009054906101000a900460a01b73ffffffffffffffffffffffffffffffffffffffff191603611e755760019250809150611e88565b8080611e80906138da565b915050611d7b565b5060018214611ecc576040517f08c379a0000000000000000000000000000000000000000000000000000000008152600401611ec390613bdc565b60405180910390fd5b7f9e6a41e8ea2b2b334b54dc9845f2a6380f1981442147443b7044641e680ad05033600760003373ffffffffffffffffffffffffffffffffffffffff1673ffffffffffffffffffffffffffffffffffffffff16815260200190815260200160002080549050600760003373ffffffffffffffffffffffffffffffffffffffff1673ffffffffffffffffffffffffffffffffffffffff1681526020019081526020016000208481548110611f8257611f81613837565b5b9060005260206000200160000160009054906101000a900460a01b8660000151604051611fb29493929190613866565b60405180910390a16040518060200160405280600060a01b73ffffffffffffffffffffffffffffffffffffffff1916815250600760003373ffffffffffffffffffffffffffffffffffffffff1673ffffffffffffffffffffffffffffffffffffffff168152602001908152602001600020828154811061203557612034613837565b5b9060005260206000200160008201518160000160006101000a8154816bffffffffffffffffffffffff021916908360a01c0217905550905050600660008573ffffffffffffffffffffffffffffffffffffffff191673ffffffffffffffffffffffffffffffffffffffff19168152602001908152602001600020600080820160006101000a8154906bffffffffffffffffffffffff0219169055505050505b80600560008473ffffffffffffffffffffffffffffffffffffffff191673ffffffffffffffffffffffffffffffffffffffff1916815260200190815260200160002060008201518160000160006101000a8154816bffffffffffffffffffffffff021916908360a01c02179055509050506040518060e001604052803373ffffffffffffffffffffffffffffffffffffffff168152602001600073ffffffffffffffffffffffffffffffffffffffff16815260200160008152602001828152602001858152602001428152602001610e10856121b09190613bfc565b61ffff16426121bf9190613803565b815250600360003373ffffffffffffffffffffffffffffffffffffffff1673ffffffffffffffffffffffffffffffffffffffff16815260200190815260200160002060008201518160000160006101000a81548173ffffffffffffffffffffffffffffffffffffffff021916908373ffffffffffffffffffffffffffffffffffffffff16021790555060208201518160010160006101000a81548173ffffffffffffffffffffffffffffffffffffffff021916908373ffffffffffffffffffffffffffffffffffffffff1602179055506040820151816002015560608201518160030160008201518160000160006101000a8154816bffffffffffffffffffffffff021916908360a01c021790555050506080820151816004015560a0820151816005015560c082015181600601559050506000805b60028054905081101561238f573373ffffffffffffffffffffffffffffffffffffffff166002828154811061232d5761232c613837565b5b9060005260206000200160009054906101000a900473ffffffffffffffffffffffffffffffffffffffff1673ffffffffffffffffffffffffffffffffffffffff160361237c576001915061238f565b8080612387906138da565b9150506122f5565b50600081036123fc576002339080600181540180825580915050600190039060005260206000200160009091909190916101000a81548173ffffffffffffffffffffffffffffffffffffffff021916908373ffffffffffffffffffffffffffffffffffffffff1602179055505b7f6b6a40d783a77f77f25da8c8dc2b280b2ad3f0e2494227638ed0aca00df5ae38338460405161242d929190613c39565b60405180910390a15050505050565b6060600060028054905067ffffffffffffffff81111561245f5761245e6138ab565b5b60405190808252806020026020018201604052801561248d5781602001602082028036833780820191505090505b5090506000805b6002805490508110156125b957600073ffffffffffffffffffffffffffffffffffffffff1660036000600284815481106124d1576124d0613837565b5b9060005260206000200160009054906101000a900473ffffffffffffffffffffffffffffffffffffffff1673ffffffffffffffffffffffffffffffffffffffff1673ffffffffffffffffffffffffffffffffffffffff16815260200190815260200160002060000160009054906101000a900473ffffffffffffffffffffffffffffffffffffffff1673ffffffffffffffffffffffffffffffffffffffff16036125a657600183828151811061258a57612589613837565b5b6020026020010181815250506001826125a39190613803565b91505b80806125b1906138da565b915050612494565b506000816002805490506125cd91906137cf565b67ffffffffffffffff8111156125e6576125e56138ab565b5b60405190808252806020026020018201604052801561261f57816020015b61260c612fe8565b8152602001906001900390816126045790505b5090506000805b60028054905081101561284b57600085828151811061264857612647613837565b5b60200260200101510361283857600360006002838154811061266d5761266c613837565b5b9060005260206000200160009054906101000a900473ffffffffffffffffffffffffffffffffffffffff1673ffffffffffffffffffffffffffffffffffffffff1673ffffffffffffffffffffffffffffffffffffffff1681526020019081526020016000206040518060e00160405290816000820160009054906101000a900473ffffffffffffffffffffffffffffffffffffffff1673ffffffffffffffffffffffffffffffffffffffff1673ffffffffffffffffffffffffffffffffffffffff1681526020016001820160009054906101000a900473ffffffffffffffffffffffffffffffffffffffff1673ffffffffffffffffffffffffffffffffffffffff1673ffffffffffffffffffffffffffffffffffffffff16815260200160028201548152602001600382016040518060200160405290816000820160009054906101000a900460a01b73ffffffffffffffffffffffffffffffffffffffff191673ffffffffffffffffffffffffffffffffffffffff1916815250508152602001600482015481526020016005820154815260200160068201548152505083838151811061281d5761281c613837565b5b60200260200101819052506001826128359190613803565b91505b8080612843906138da565b915050612626565b508194505050505090565b81600360008273ffffffffffffffffffffffffffffffffffffffff1673ffffffffffffffffffffffffffffffffffffffff1681526020019081526020016000206006015442106128ae576128a9816105ba565b612da0565b600073ffffffffffffffffffffffffffffffffffffffff16600360008573ffffffffffffffffffffffffffffffffffffffff1673ffffffffffffffffffffffffffffffffffffffff16815260200190815260200160002060000160009054906101000a900473ffffffffffffffffffffffffffffffffffffffff1673ffffffffffffffffffffffffffffffffffffffff160361297f576040517f08c379a000000000000000000000000000000000000000000000000000000000815260040161297690613780565b60405180910390fd5b600360008473ffffffffffffffffffffffffffffffffffffffff1673ffffffffffffffffffffffffffffffffffffffff16815260200190815260200160002060040154600060149054906101000a900467ffffffffffffffff1667ffffffffffffffff16836129ee91906137cf565b11612a2e576040517f08c379a0000000000000000000000000000000000000000000000000000000008152600401612a2590613cd4565b60405180910390fd5b600360008473ffffffffffffffffffffffffffffffffffffffff1673ffffffffffffffffffffffffffffffffffffffff16815260200190815260200160002060020154600060149054906101000a900467ffffffffffffffff1667ffffffffffffffff1683612a9d91906137cf565b11612add576040517f08c379a0000000000000000000000000000000000000000000000000000000008152600401612ad490613d66565b60405180910390fd5b600060149054906101000a900467ffffffffffffffff1667ffffffffffffffff16600154612b0b9190613803565b600181905550600360008473ffffffffffffffffffffffffffffffffffffffff1673ffffffffffffffffffffffffffffffffffffffff16815260200190815260200160002060010160009054906101000a900473ffffffffffffffffffffffffffffffffffffffff1673ffffffffffffffffffffffffffffffffffffffff166108fc600360008673ffffffffffffffffffffffffffffffffffffffff1673ffffffffffffffffffffffffffffffffffffffff168152602001908152602001600020600201549081150290604051600060405180830381858888f19350505050158015612bfb573d6000803e3d6000fd5b506000600360008573ffffffffffffffffffffffffffffffffffffffff1673ffffffffffffffffffffffffffffffffffffffff16815260200190815260200160002060020154905033600360008673ffffffffffffffffffffffffffffffffffffffff1673ffffffffffffffffffffffffffffffffffffffff16815260200190815260200160002060010160006101000a81548173ffffffffffffffffffffffffffffffffffffffff021916908373ffffffffffffffffffffffffffffffffffffffff160217905550600060149054906101000a900467ffffffffffffffff1667ffffffffffffffff1683612cf091906137cf565b600360008673ffffffffffffffffffffffffffffffffffffffff1673ffffffffffffffffffffffffffffffffffffffff168152602001908152602001600020600201819055507fa6da490df6e8f0e592e795b4d96c5810d8ddfda51c21577adbdd8e1a0fa47a67843383600060149054906101000a900467ffffffffffffffff1667ffffffffffffffff1687612d8691906137cf565b604051612d969493929190613d86565b60405180910390a1505b505050565b60076020528160005260406000208181548110612dc157600080fd5b90600052602060002001600091509150508060000160009054906101000a900460a01b905081565b612df1612fe8565b6000600360008473ffffffffffffffffffffffffffffffffffffffff1673ffffffffffffffffffffffffffffffffffffffff1681526020019081526020016000206040518060e00160405290816000820160009054906101000a900473ffffffffffffffffffffffffffffffffffffffff1673ffffffffffffffffffffffffffffffffffffffff1673ffffffffffffffffffffffffffffffffffffffff1681526020016001820160009054906101000a900473ffffffffffffffffffffffffffffffffffffffff1673ffffffffffffffffffffffffffffffffffffffff1673ffffffffffffffffffffffffffffffffffffffff16815260200160028201548152602001600382016040518060200160405290816000820160009054906101000a900460a01b73ffffffffffffffffffffffffffffffffffffffff191673ffffffffffffffffffffffffffffffffffffffff191681525050815260200160048201548152602001600582015481526020016006820154815250509050600073ffffffffffffffffffffffffffffffffffffffff16816000015173ffffffffffffffffffffffffffffffffffffffff1603612fdf576040517f08c379a0000000000000000000000000000000000000000000000000000000008152600401612fd690613e3d565b60405180910390fd5b80915050919050565b6040518060e00160405280600073ffffffffffffffffffffffffffffffffffffffff168152602001600073ffffffffffffffffffffffffffffffffffffffff1681526020016000815260200161303c613057565b81526020016000815260200160008152602001600081525090565b6040518060200160405280600073ffffffffffffffffffffffffffffffffffffffff191681525090565b600073ffffffffffffffffffffffffffffffffffffffff82169050919050565b60006130ac82613081565b9050919050565b6130bc816130a1565b82525050565b60006020820190506130d760008301846130b3565b92915050565b6000819050919050565b6130f0816130dd565b82525050565b600060208201905061310b60008301846130e7565b92915050565b600080fd5b600067ffffffffffffffff82169050919050565b61313381613116565b811461313e57600080fd5b50565b6000813590506131508161312a565b92915050565b60006020828403121561316c5761316b613111565b5b600061317a84828501613141565b91505092915050565b61318c816130a1565b811461319757600080fd5b50565b6000813590506131a981613183565b92915050565b6000602082840312156131c5576131c4613111565b5b60006131d38482850161319a565b91505092915050565b6131e581613116565b82525050565b600060208201905061320060008301846131dc565b92915050565b60007fffffffffffffffffffffffff000000000000000000000000000000000000000082169050919050565b61323b81613206565b811461324657600080fd5b50565b60008135905061325881613232565b92915050565b60006020828403121561327457613273613111565b5b600061328284828501613249565b91505092915050565b600081519050919050565b600082825260208201905092915050565b6000819050602082019050919050565b6132c0816130a1565b82525050565b6132cf816130dd565b82525050565b6132de81613206565b82525050565b6020820160008201516132fa60008501826132d5565b50505050565b60e08201600082015161331660008501826132b7565b50602082015161332960208501826132b7565b50604082015161333c60408501826132c6565b50606082015161334f60608501826132e4565b50608082015161336260808501826132c6565b5060a082015161337560a08501826132c6565b5060c082015161338860c08501826132c6565b50505050565b600061339a8383613300565b60e08301905092915050565b6000602082019050919050565b60006133be8261328b565b6133c88185613296565b93506133d3836132a7565b8060005b838110156134045781516133eb888261338e565b97506133f6836133a6565b9250506001810190506133d7565b5085935050505092915050565b6000602082019050818103600083015261342b81846133b3565b905092915050565b61343c816130dd565b811461344757600080fd5b50565b60008135905061345981613433565b92915050565b600061ffff82169050919050565b6134768161345f565b811461348157600080fd5b50565b6000813590506134938161346d565b92915050565b6000806000606084860312156134b2576134b1613111565b5b60006134c08682870161344a565b93505060206134d186828701613484565b92505060406134e286828701613249565b9150509250925092565b6000806040838503121561350357613502613111565b5b60006135118582860161319a565b92505060206135228582860161344a565b9150509250929050565b61353581613206565b82525050565b6000602082019050613550600083018461352c565b92915050565b60e08201600082015161356c60008501826132b7565b50602082015161357f60208501826132b7565b50604082015161359260408501826132c6565b5060608201516135a560608501826132e4565b5060808201516135b860808501826132c6565b5060a08201516135cb60a08501826132c6565b5060c08201516135de60c08501826132c6565b50505050565b600060e0820190506135f96000830184613556565b92915050565b600082825260208201905092915050565b7f596f752063616e6e6f74207465726d696e6174652074686520636f6e7472616360008201527f7421000000000000000000000000000000000000000000000000000000000000602082015250565b600061366c6022836135ff565b915061367782613610565b604082019050919050565b6000602082019050818103600083015261369b8161365f565b9050919050565b7f596f7520617265206e6f74207468652063726561746f72206f6620746865206360008201527f6f6e74726163742e000000000000000000000000000000000000000000000000602082015250565b60006136fe6028836135ff565b9150613709826136a2565b604082019050919050565b6000602082019050818103600083015261372d816136f1565b9050919050565b7f5468652061756374696f6e20646f65736e27742065786973742e000000000000600082015250565b600061376a601a836135ff565b915061377582613734565b602082019050919050565b600060208201905081810360008301526137998161375d565b9050919050565b7f4e487b7100000000000000000000000000000000000000000000000000000000600052601160045260246000fd5b60006137da826130dd565b91506137e5836130dd565b92508282039050818111156137fd576137fc6137a0565b5b92915050565b600061380e826130dd565b9150613819836130dd565b9250828201905080821115613831576138306137a0565b5b92915050565b7f4e487b7100000000000000000000000000000000000000000000000000000000600052603260045260246000fd5b600060808201905061387b60008301876130b3565b61388860208301866130e7565b613895604083018561352c565b6138a2606083018461352c565b95945050505050565b7f4e487b7100000000000000000000000000000000000000000000000000000000600052604160045260246000fd5b60006138e5826130dd565b91507fffffffffffffffffffffffffffffffffffffffffffffffffffffffffffffffff8203613917576139166137a0565b5b600182019050919050565b7f546865206475726174696f6e2068617320746f2062652067726561746572207460008201527f68616e20302e0000000000000000000000000000000000000000000000000000602082015250565b600061397e6026836135ff565b915061398982613922565b604082019050919050565b600060208201905081810360008301526139ad81613971565b9050919050565b7f4f6e6c79206f6e65206f70656e2061756374696f6e2070657220757365722e00600082015250565b60006139ea601f836135ff565b91506139f5826139b4565b602082019050919050565b60006020820190508181036000830152613a19816139dd565b9050919050565b7f546865207374617274696e67207072696365206f6620616e2061756374696f6e60008201527f2068617320746f2062652067726561746572206f7220657175616c207468616e60208201527f20746865206669786564207461782e0000000000000000000000000000000000604082015250565b6000613aa2604f836135ff565b9150613aad82613a20565b606082019050919050565b60006020820190508181036000830152613ad181613a95565b9050919050565b7f596f752063616e6e6f742073656c6c206120636172207468617420736f6d656f60008201527f6e6520656c736520697320616c72656164792073656c6c696e67212100000000602082015250565b6000613b34603c836135ff565b9150613b3f82613ad8565b604082019050919050565b60006020820190508181036000830152613b6381613b27565b9050919050565b7f596f752063616e6e6f742073656c6c20736f6d657468696e672074686174207960008201527f6f7520646f6e2774206861766521000000000000000000000000000000000000602082015250565b6000613bc6602e836135ff565b9150613bd182613b6a565b604082019050919050565b60006020820190508181036000830152613bf581613bb9565b9050919050565b6000613c078261345f565b9150613c128361345f565b9250828202613c208161345f565b9150808214613c3257613c316137a0565b5b5092915050565b6000604082019050613c4e60008301856130b3565b613c5b602083018461352c565b9392505050565b7f546865206e6577206f666665722068617320746f20626520677265617465722060008201527f7468616e20746865207374617274696e672070726963652e0000000000000000602082015250565b6000613cbe6038836135ff565b9150613cc982613c62565b604082019050919050565b60006020820190508181036000830152613ced81613cb1565b9050919050565b7f546865206e6577206f666665722068617320746f20626520677265617465722060008201527f7468616e207468652063757272656e74206f666665722e000000000000000000602082015250565b6000613d506037836135ff565b9150613d5b82613cf4565b604082019050919050565b60006020820190508181036000830152613d7f81613d43565b9050919050565b6000608082019050613d9b60008301876130b3565b613da860208301866130b3565b613db560408301856130e7565b613dc260608301846130e7565b95945050505050565b7f546865206f70656e2061756374696f6e20796f7520617265207365617263686960008201527f6e6720646f65736e27742065786973742e000000000000000000000000000000602082015250565b6000613e276031836135ff565b9150613e3282613dcb565b604082019050919050565b60006020820190508181036000830152613e5681613e1a565b905091905056fea26469706673582212201a95f52b82ce41bd66c9fea54c8c63641258fd31ff335496f822d79519fafd5a64736f6c63430008110033",
  "immutableReferences": {},
  "source": "// SPDX-License-Identifier: CC-BY-SA-4.0\r\npragma solidity >=0.8.0 <0.9.0;\r\n\r\ncontract StoCar{ \r\n    address payable private creator;\r\n    \r\n    struct CarNFT{\r\n        bytes12 chassis_id; //hash of the chassis number computed with keccak256\r\n    }\r\n\r\n    struct Auction{\r\n        address owner; //user that owns the auction\r\n        address current_winner; //user that has currently sent the highest offer\r\n        uint256 offer; //either starting price or highest offer\r\n        CarNFT car;\r\n        uint256 starting_price;\r\n        uint256 start_timestamp; //timestamp at which the auction started\r\n        uint duration; //maximum duration of the auction in hours\r\n    }\r\n    \r\n    uint64 private tax; //applied transaction tax in WEI\r\n    \r\n    uint256 private collected_taxes; //keep the amount of taxes collected by the contract (in WEI)\r\n\r\n    address[] internal sellers; //list of all the sellers\r\n\r\n    mapping(address=>Auction) internal open_auctions; //list of all the auctions where the key\r\n                                                    //is the owner's address\r\n    mapping(address=>Auction) internal closed_auctions; //list of all the closed auctions\r\n\r\n    mapping(bytes12=>CarNFT) internal tokens_open; //list of all the NFTs in currently opened auctions\r\n\r\n    mapping(bytes12=>CarNFT) internal tokens_closed; //list of all the NFTs in closed auctions\r\n\r\n    mapping(address=>CarNFT[]) public token_balance; //each account with the relative tokens\r\n\r\n    //Events declaration\r\n    event TaxChanged(uint64 new_tax);\r\n    event AuctionOpened(address owner, bytes12 chassis_id);\r\n    event OfferAccepted(address owner, address offerer, uint256 past_offer, uint256 new_offer);\r\n    event AuctionClosed();\r\n    event Withdrawn(uint256 taxes);\r\n    event TokenBalanceAccessed(address owner, uint token_num, bytes12 chassis_id, bytes12 zero);\r\n    event Debug(uint value); \r\n\r\n    constructor(uint64 starting_tax) {\r\n        creator = payable(msg.sender);\r\n        tax = starting_tax;\r\n        collected_taxes = 0;\r\n    }   \r\n\r\n    // It checks if an auction has expired\r\n    modifier CheckExpiry(address owner_addr){\r\n        if(block.timestamp >= open_auctions[owner_addr].duration){\r\n            closeAuction(owner_addr);\r\n            return;\r\n        }\r\n        _;\r\n    }\r\n\r\n    function openAuction(uint256 starting_price, uint16 max_duration, bytes12 chassis_id) public{\r\n        require(max_duration > 0, \"The duration has to be greater than 0.\");\r\n        require(open_auctions[msg.sender].owner == address(0), \"Only one open auction per user.\");\r\n        require(starting_price >= tax, \"The starting price of an auction has to be greater or equal than the fixed tax.\");\r\n        require(tokens_open[chassis_id].chassis_id == bytes12(0), \"You cannot sell a car that someone else is already selling!!\");\r\n\r\n        //check if the token already exists, if not create a new one\r\n        CarNFT memory car;// = CarNFT({chassis_id: 0});\r\n        if(tokens_closed[chassis_id].chassis_id == bytes12(0)){\r\n            car = CarNFT({\r\n                chassis_id: chassis_id\r\n            }); //create new token\r\n        }\r\n        else{\r\n            uint presence = 0;\r\n            uint index = 0;\r\n            car = tokens_closed[chassis_id]; //use the one already existing\r\n\r\n            for(uint i = 0; i < token_balance[msg.sender].length; i++){\r\n                if(token_balance[msg.sender][i].chassis_id == car.chassis_id){ \r\n                    //token is in the sender's possession\r\n                    presence = 1;\r\n                    index = i;\r\n                    break;\r\n                }\r\n            }\r\n            //if the sender is trying to sell an already existing token without having it in possession, revert\r\n            require(presence == 1, \"You cannot sell something that you don't have!\");\r\n\r\n            //at this point, remove token from the sender possession (so that at the end it can be added to the next owner balance)\r\n            emit TokenBalanceAccessed(msg.sender, token_balance[msg.sender].length, token_balance[msg.sender][index].chassis_id,car.chassis_id);\r\n            token_balance[msg.sender][index] = CarNFT({chassis_id: 0});\r\n            delete tokens_closed[chassis_id];\r\n        }\r\n\r\n        tokens_open[chassis_id] = car; //add token reference to auction\r\n\r\n        open_auctions[msg.sender] = Auction({\r\n            owner: msg.sender,\r\n            current_winner: address(0),\r\n            offer: 0,\r\n            car: car,\r\n            starting_price: starting_price,\r\n            start_timestamp: block.timestamp,\r\n            duration: block.timestamp+(max_duration * 1 hours)\r\n        });\r\n\r\n        uint check = 0;\r\n        for(uint i = 0; i < sellers.length; i++){\r\n            if(sellers[i] == msg.sender){\r\n                check = 1;\r\n                break;\r\n            }\r\n        }\r\n        if(check == 0){\r\n            sellers.push(msg.sender);\r\n        }\r\n\r\n        emit AuctionOpened(msg.sender,chassis_id);\r\n    }\r\n\r\n    \r\n    function getOpenAuctions() public view returns (Auction[] memory){\r\n        uint[] memory empty = new uint[](sellers.length);\r\n        uint total = 0;\r\n\r\n        for(uint i = 0; i < sellers.length; i++){\r\n            if(open_auctions[sellers[i]].owner == address(0)){\r\n                empty[i] = 1;\r\n                total+=1;\r\n            }\r\n        }\r\n        Auction[] memory ret = new Auction[]((sellers.length-total));\r\n        uint index = 0;\r\n        for(uint i = 0; i < sellers.length; i++){\r\n            if(empty[i] == 0){\r\n                ret[index] = open_auctions[sellers[i]];\r\n                index+=1;\r\n            }\r\n        }\r\n\r\n        return ret;\r\n    }\r\n\r\n    function getOpenAuction(address owner_id) public view returns (Auction memory){\r\n        Auction memory ret = open_auctions[owner_id];\r\n\r\n        require(ret.owner != address(0), \"The open auction you are searching doesn't exist.\");\r\n\r\n        return ret;\r\n    }\r\n\r\n    function participateAuction(address owner_addr, uint256 new_offer) payable public CheckExpiry(owner_addr){\r\n        require(open_auctions[owner_addr].owner != address(0), \"The auction doesn't exist.\"); //Check if the auction exists\r\n        require((new_offer-tax)>open_auctions[owner_addr].starting_price, \"The new offer has to be greater than the starting price.\");\r\n        require((new_offer-tax)>open_auctions[owner_addr].offer, \"The new offer has to be greater than the current offer.\");\r\n        \r\n        //when the new offer is accepted, the past offer is to be returned to the account who sent it\r\n        collected_taxes = collected_taxes + tax;\r\n\r\n        payable(open_auctions[owner_addr].current_winner).transfer(open_auctions[owner_addr].offer); //every exchange should be in Weis\r\n        //emit Debug(open_auctions[owner_addr].offer, msg.value, new_offer);\r\n        \r\n        uint256 past_offer = open_auctions[owner_addr].offer;\r\n        open_auctions[owner_addr].current_winner = msg.sender;\r\n        open_auctions[owner_addr].offer = (new_offer-tax); //detract the fixed tax from the total amount offered\r\n        \r\n        emit OfferAccepted(owner_addr, msg.sender, past_offer, (new_offer-tax));\r\n    }\r\n\r\n\r\n    function closeAuction(address owner_addr) public{\r\n        require(open_auctions[owner_addr].owner != address(0), \"The auction doesn't exist.\"); //Check if the auction exists (just to be sure)\r\n\r\n        //tax is paid for opening the auction (or better detracted from the value that is trasnferred to the owner of the auction)\r\n        //but only if someone made an offer and the token exchange is finalized, otherwise no tax is detracted, and no token is sent \r\n        if(open_auctions[owner_addr].offer != 0){ //an offer was made, the highest one (which is the last one) wins\r\n            open_auctions[owner_addr].offer -= tax;\r\n            collected_taxes = collected_taxes + tax;\r\n\r\n            token_balance[open_auctions[owner_addr].current_winner].push(open_auctions[owner_addr].car); //token added to winner balance\r\n            emit TokenBalanceAccessed(open_auctions[owner_addr].current_winner, token_balance[open_auctions[owner_addr].current_winner].length,token_balance[open_auctions[owner_addr].current_winner][0].chassis_id, bytes12(0));\r\n        }\r\n        else{ //no offer was made\r\n            token_balance[owner_addr].push(open_auctions[owner_addr].car); //token added to previous owner balance\r\n            emit TokenBalanceAccessed(owner_addr, token_balance[owner_addr].length,token_balance[owner_addr][0].chassis_id, bytes12(0));\r\n\r\n        }\r\n        payable(open_auctions[owner_addr].owner).transfer(open_auctions[owner_addr].offer); //updated value is transferred to the auction's owner\r\n        \r\n        //now the contract state is updated\r\n        closed_auctions[owner_addr] = open_auctions[owner_addr]; //add auction to closed auctions\r\n        tokens_closed[open_auctions[owner_addr].car.chassis_id] = tokens_open[open_auctions[owner_addr].car.chassis_id]; //add token to tokens of closed auctions\r\n        delete tokens_open[open_auctions[owner_addr].car.chassis_id]; //remove token from tokens of open auctions\r\n        delete open_auctions[owner_addr]; //remove auction from open auctions\r\n\r\n        emit AuctionClosed();\r\n    }\r\n\r\n    function getCarHistory(bytes12 chassis_id) view public returns (Auction[] memory){\r\n        // find auctions of a specific chassis_id\r\n\r\n        uint[] memory open_presence = new uint[](sellers.length);\r\n        uint[] memory closed_presence = new uint[](sellers.length);\r\n        uint total = 0;\r\n\r\n        for(uint i = 0; i < sellers.length; i++){\r\n            if(open_auctions[sellers[i]].car.chassis_id == chassis_id){\r\n                open_presence[i] = 1;\r\n                total+=1;\r\n            }\r\n            else if(closed_auctions[sellers[i]].car.chassis_id == chassis_id){\r\n                closed_presence[i] = 1;\r\n                total+=1;\r\n            }\r\n        }\r\n\r\n        Auction[] memory ret = new Auction[](total);\r\n        uint index = 0;\r\n        for(uint i = 0; i < sellers.length; i++){\r\n            if(open_presence[i] == 1){\r\n                ret[index] = open_auctions[sellers[i]];\r\n                index+=1;\r\n            } \r\n            else if(closed_presence[i] == 1){\r\n                ret[index] = closed_auctions[sellers[i]];\r\n                index+=1;\r\n            }\r\n        }\r\n\r\n        return ret;\r\n\r\n    }\r\n\r\n\r\n    function getTax() public view returns(uint64 ret){\r\n        return tax;\r\n    }\r\n    function getCreator() public view returns(address){\r\n        return creator;\r\n    }\r\n    function changeFixedTax(uint64 new_tax) public{\r\n        require(msg.sender == creator, \"You are not the creator of the contract.\");\r\n        \r\n        tax = new_tax; //Wei\r\n        emit TaxChanged(new_tax);\r\n    }\r\n\r\n    function withdraw() payable public returns(uint256) {\r\n\r\n        require(msg.sender == creator, \"You are not the creator of the contract.\");\r\n\r\n        payable(msg.sender).transfer(collected_taxes);\r\n        \r\n        emit Withdrawn(collected_taxes);\r\n\r\n        uint256 old_taxes = collected_taxes;\r\n        collected_taxes = 0;\r\n        return old_taxes;\r\n\r\n    }\r\n\r\n    function terminate() public {\r\n        require(msg.sender == creator, \"You cannot terminate the contract!\");\r\n        selfdestruct(creator);\r\n    }\r\n\r\n\r\n}",
  "sourcePath": "C:\\Users\\Elisa Ciotoli\\Desktop\\Elisa\\Blockchain Project\\StoCar\\contracts\\StoCar.sol",
  "compiler": {
    "name": "solc",
    "version": "0.8.17+commit.8df45f5f.Emscripten.clang"
  },
  "schemaVersion": "3.4.11",
  "updatedAt": "2023-02-12T09:18:46.044Z",
  "networkType": "ethereum",
  "devdoc": {
    "kind": "dev",
    "methods": {},
    "version": 1
  },
  "userdoc": {
    "kind": "user",
    "methods": {},
    "version": 1
  }
}